:020000040800F2
:10000000A0170020FD470008D1450008D34500088F
:10001000D5450008D7450008D94500080000000074
:10002000000000000000000000000000DB450008A8
:10003000DD45000800000000DF450008E14500083C
:100040003D48000841480008454800084948000864
:100050004D48000851480008E54500085948000887
:100060005D480008614800086548000869480008C4
:100070006D48000871480008754800087948000874
:100080007D48000881480008854800088948000824
:100090008D480008914800089548000899480008D4
:1000A0009D480008A1480008A5480008A948000884
:1000B0000B460008B1480008B5480008B9480008D8
:1000C000BD480008C1480008C5480008C9480008E4
:1000D000CD48000839460008D5480008D94800082E
:1000E000DD480008E1480008E5480008E948000844
:1000F000ED480008F1480008F5480008F9480008F4
:10010000FD480008014900080549000809490008A0
:100110000D4900081149000815490008194900084F
:100120001D490008214900082549000829490008FF
:100130002D490008314900083549000839490008AF
:100140003D4900084149000845490008494900085F
:100150004D4900085149000855490008594900080F
:100160005D490008614900086549000869490008BF
:100170006D4900087149000875490008794900086F
:100180007D49000800F5E0700268914203D343689E
:100190009A18914202D380680028F5D17047DFF8A1
:1001A0002007016899B94FF48031816004224FF42F
:1001B000805141604FF0FF31C16001610421416114
:1001C000DFF80017C1F8BC21DFF8FC160160012040
:1001D000704701F1080313F0070305D001F108038C
:1001E000C3F1080303F007035918D21A8161C260F2
:1001F00042F001034B60511828224A60DFF8C01614
:100200000969C16170472DE9F84F044601F1080002
:1002100010F0070005D001F10800C0F1080000F05F
:10022000070000EB010B02F1080010F0070005D0F9
:1002300002F10800C0F1080000F007008618A6EBE4
:100240000B00A0EB030803EB0B0743F00300CBF814
:100250000400B74228BF01F0EFF93079C00758BF5A
:1002600001F0EAF9B8F1100F38BF01F0E5F9A06923
:10027000864207D1E0684044E060A76140F0010099
:1002800078605AE16069864208D1A0684044A06065
:10029000676140F001017960C0514EE1706800F083
:1002A0000301012940F0AD80C0084FEAC0092028B1
:1002B0003BD2D6F808A0F5680090AE4208BF01F026
:1002C000BBF9564508BF01F0B7F970680099C0083E
:1002D000C000B0EBC10F18BF01F0AEF9009804EBFD
:1002E000C00000F128018A4508D021698A45C0F084
:1002F0008480DAF80C10B14240F07F80554506D179
:10030000009A2068012191408843206077E02830DE
:10031000854205D0206985426FD3A868B0426CD170
:10032000CAF80C50C5F808A069E0F568D6F818A01E
:10033000B5420CD0B0682169884223D3C168B1426C
:1003400004BFA968B1421DD1C560A8601CE006F1D8
:100350001400056835B906F110000568A5B101E083
:100360000846056805F114010A68002A02BF05F174
:1003700010010A68002AF3D12169884202D30021C2
:10038000016001E001F058F9BAF1000F37D0F069CF
:1003900004EB800000F5987001688E4209D1056079
:1003A000280014D1F269606801219140884360609F
:1003B00025E02069824508D3DAF81000B04214BF66
:1003C000CAF81450CAF8105001E001F035F9B5B17F
:1003D0002069854211D3C5F818A0316929B181423D
:1003E00026BF29618D6101F027F9706938B1216953
:1003F000884202D36861856101E001F01DF94E4435
:10040000C84470684008400070604FEAD80548F062
:100410000100786048F80780202D21D204EBC50048
:1004200000F12806B146B8F1100F38BF01F004F909
:10043000206820FA05F1C90704D40121A940084326
:10044000206006E0B068216988422CBF814601F037
:10045000F3F8B760C9F80C70C7F80890FE606CE05C
:100460005FEA182008BF002123D0B0F5803F28BFE5
:100470001F211ED2A0F58071090C01F008018840EF
:10048000A0F58052120C02F004029040A0F58043C7
:100490001B0CC1F10E0103F00203891AC91A98401E
:1004A00001EBD030C11D28FA01F101F0010101EB8F
:1004B0004001F96100227A613A6104EB81006268CF
:1004C00022FA01F300F59870DB0706D4012303FA42
:1004D00001F11143616007601CE01F2900680EBF35
:1004E00000214908C1F1190108FA01F100E01046A4
:1004F0004268D208D200424510D0CA0F00EB8202F7
:1005000002F1100349001A68002AF0D121698B42D8
:1005100011D31F60B861FF60BF600EE0226981687F
:10052000904228BF914206D3CF608760B960F860DF
:100530000020B86101E001F07FF80BF10800BDE890
:10054000F28F2DE9F04F0546DFF87403006883B0A1
:10055000884608B9FFF723FEDFF86403806800EBE4
:1005600008012F31401E21EA0000804580F0A5815E
:10057000D5F8B81141B1D5F8B0218018824280F089
:100580009C818142C0F0998101F06AF800281EBF69
:100590000446076814F1010F00F08F81D5F8B0010F
:1005A0003818C5F8B001D5F8B411814238BF0146FA
:1005B000C5F8B411A86968BB286908B1844200D2A3
:1005C0002C61C5F8C041C5F8C4710020C5F8CC0144
:1005D0002021BB48006868624FF0FF30286228463F
:1005E00000F128020830D2609260491EF8D1B54867
:1005F000854203D1A7F12802214625E055F8040CD5
:10060000C00805EBC000A0F108013819401AA0F19C
:10061000280219E005F5E071084600E08068B8B1ED
:1006200042680368D2189442F8D1027B12070FD4B3
:10063000AA699A420CD3466833449A4208D2B9193F
:100640004160E868A9693A182846FFF7C2FD1FE132
:100650002869844238BF2C610846391900E0806857
:1006600080B102688A42FAD1017B09070AD404608A
:1006700043464168791841602846214603B0BDE8E9
:10068000F04FC0E5AE6931462846FFF77BFD416873
:100690000068081801902F3800F1080111F00701D7
:1006A00005D000F10801C1F1080101F0070101EBDB
:1006B000000906F11000814538BFB14609F1080074
:1006C000009004F1080109F1180A4FF0000BA7F19E
:1006D000280011F0070105D004F10801C1F108015B
:1006E00001F007010A19401AAA61E86040F001010F
:1006F000516080182821416071480069E8610098C4
:1007000010F0070018BF00F097FF1B20C9F8040085
:1007100005F5E071B1E80C500098A0E80C50C5F860
:10072000C041C5F8C471C5F8CCB10098C5F8C8017E
:10073000019800E08A460722CAF804200AF1040161
:100740000A1D0BF1010B8242F4D3BBF1020FB8BFBB
:1007500000F072FFB14500F09B80A9EB0600811903
:100760004FEAD0094A68520852004A6040F001013D
:1007700071608051B9F1200F1FD205EBC90101F161
:1007800028042746102838BF00F056FF286820FAB2
:1007900009F1C90705D4012101FA09F108432860CC
:1007A00006E0A068296988422CBF074600F044FF94
:1007B000A660FE60B760F4606AE0010A08BF00222C
:1007C00023D0B1F5803F28BF1F221ED2A1F5807231
:1007D000120C02F008029140A1F580531B0C03F0AB
:1007E00004039940A1F58044240CC2F10E0204F0E8
:1007F0000204D21A121BA14002EBD131CA1D20FA09
:1008000002F202F0010202EB4102F2610023736185
:10081000336105EB82016B6823FA02F401F59871EC
:10082000E40705D401209040184368600E601CE086
:100830001F2A09680EBF00225208C2F1190200FAED
:1008400002F200E019464B68DB08DB00834210D05F
:10085000D30F01EB830303F1100452002368002B34
:10086000F0D12869844211D32660B161F660B66088
:100870000EE02A698868914228BF904206D3C6607C
:100880008E60B060F1600020B06101E000F0D4FE45
:10089000E868804511D2A0EB0800E86040F0010054
:1008A000A96908EB0102AA61506048F003004860A2
:1008B00003B001F10800BDE8F08F002000F02BBC70
:1008C00078130020501100206859883C2DE9F84F1A
:1008D000044688460026C8F1000B5FEA182008BFCE
:1008E000002123D0B0F5803F28BF1F211ED2A0F5E4
:1008F0008071090C01F008018840A0F58052120CAB
:1009000002F004029040A0F580431B0CC1F10E01DF
:1009100003F00203891AC91A984001EBD030C11DB7
:1009200028FA01F101F0010101EB400104EB810023
:10093000D0F8300130B31F290EBF00224A08C2F19F
:10094000190208FA02F2002300E052004568ED089F
:10095000ED00A5EB08055D4503D206465FEA050BF1
:100960000CD045694FEAD27E00EB8E00002D006965
:100970001CBF85422B460028E7D1184600283AD1F3
:10098000002E3AD10120884040004142084361686E
:10099000084000F05F8141420840411E080B00F012
:1009A000100021FA00F2510901F00801CA40930831
:1009B00003F00403DA40550805F002050818EA4080
:1009C0001818C2F3400E2844704422FA0EF1081899
:1009D00004EB8000D0F830010DE008464168C908FA
:1009E000C900A1EB080159453CBF8B460646016989
:1009F0000029F2D140690028F0D1002E00F02A81B0
:100A0000A068A0EB0800834580F02481206986421D
:100A1000C0F01E817068C00808EB0B09C00008EB2D
:100A20000605484518BF00F007FEAE4280F0108171
:100A3000F768D6F818A0B7420CD0B0682169884290
:100A400023D3C168B14204BFB968B1421DD1C760A8
:100A5000B8601CE006F11400076837B906F1100011
:100A60000768A7B101E00846076807F114010A68A2
:100A7000002A02BF07F110010A68002AF3D1216998
:100A8000884202D30021016001E000F0D5FDBAF1F7
:100A9000000F38D0F06904EB800000F59870016811
:100AA0008E4209D10760380014D1F26960680121D3
:100AB00091408843606026E02069824508D3DAF8D7
:100AC0001000B04214BFCAF81470CAF8107001E0E8
:100AD00000F0B2FDBFB12069874212D3C7F818A059
:100AE000306930B12169884226BF3861876100F0E2
:100AF000A3FD706938B12169884202D378618761AA
:100B000001E000F099FDBBF1100F09D249F003009C
:100B1000706009EB0600416841F00101416096E018
:100B200048F0030070604BF0010068604BF805B0BE
:100B30004FEADB0020281DD204EBC00101F1280799
:100B4000216821FA00F2BB46D20705D4012202FA3D
:100B500000F00843206006E0B868216988422CBF95
:100B6000834600F069FDBD60CBF80C50C5F808B0B5
:100B7000EF606CE05FEA1B2008BF002123D0B0F5D6
:100B8000803F28BF1F211ED2A0F58071090C01F003
:100B900008018840A0F58052120C02F00402904037
:100BA000A0F580431B0CC1F10E0103F00203891A6A
:100BB000C91A984001EBD030C11D2BFA01F101F0A8
:100BC000010101EB4001E96100226A612A6104EB45
:100BD0008100626822FA01F300F59870DB0706D401
:100BE000012303FA01F11143616005601CE01F2934
:100BF00000680EBF00214908C1F119010BFA01F18B
:100C000000E010464268D208D2005A4510D0CA0F00
:100C100000EB820202F1100349001A68002AF0D1A9
:100C200021698B4211D31D60A861ED60AD600EE0BB
:100C300022698168904228BF914206D3CD608560C9
:100C4000A960E8600020A86101E000F0F5FC07E180
:100C500000F0F2FC01E12DE9F84F04468846606897
:100C600041420840411E080B00F01000C1404A09F3
:100C700002F00802D1408B0803F00403D9404D086C
:100C800005F002051018E9401818C1F34006284481
:100C90003018F140081804EB8000D0F830014168AA
:100CA000C908C9000646A1EB080A09E008464168E0
:100CB000C908C900A1EB080151453CBF8A46064658
:100CC00001690029F2D140690028F0D120698642EB
:100CD000C0F0C1807068C00808EB0A09C00008EBCA
:100CE000060B484518BF00F0A7FC5E4580F0B380B6
:100CF000F768B569B7420CD0B0682169884223D340
:100D0000C168B14204BFB968B1421DD1C760B860C3
:100D10001CE006F11400076837B906F110000768F7
:100D2000A7B101E00846076807F114010A68002A24
:100D300002BF07F110010A68002AF3D12169884235
:100D400002D30021016001E000F076FC002D34D0D8
:100D5000F06904EB800000F5987001688E4209D1BB
:100D60000760380011D1F269606801219140884321
:100D7000606022E02069854205D32869B04214BF33
:100D80006F612F6101E000F057FCB7B12069874225
:100D900011D3BD61306930B12169884226BF386105
:100DA000876100F049FC706938B12169884202D33B
:100DB0007861876101E000F03FFCBAF1100F09D2C1
:100DC00049F00300706009EB0600416841F0010141
:100DD00041603FE048F0030070604AF00100CBF84A
:100DE00004004AF80BA0D4F808804FEAD805202D5B
:100DF00028BF00F021FCB8F1000F27D0D4F81490E0
:100E0000009504EBC50000F128052F46B8F1100F3E
:100E100038BF00F011FC2068009920FA01F1C907E1
:100E200005D4009A012191400843206006E0A8689B
:100E3000216988422CBF074600F0FEFBC5F80890E8
:100E4000C7F80C90C9F80870C9F80C50C4F808A08D
:100E5000C4F814B004E000F0EFFB0020BDE8F28F0E
:100E600006F10800BDE8F28F2DE9F04F83B005468A
:100E7000C046C046DFF8B847F52D80F001810B2D44
:100E800031BF102705F10B00C008C7002068FE081D
:100E9000F04010F0030F42D0C04300F0010086196B
:100EA00004EBC60000F12808F700D8F8085068687D
:100EB000C008C000B84218BF00F0BEFBD5F80890CB
:100EC000454508BF00F0B8FB4D4508BF00F0B4FB36
:100ED0006868C008C000B84218BF00F0ADFBC84544
:100EE00005D120680121B140884320600DE02069D0
:100EF000814508D3D9F80C00A84204D1C8F808905D
:100F0000C9F80C8001E000F097FB47F0030068602F
:100F100078190835416841F001014160F8E0A168A5
:100F2000B94280F0BF80002800F0A180012505FAB9
:100F300006F149004A42B04011430840414208408E
:100F4000411E080B00F01000C1404A0902F00802DF
:100F5000D1408B0803F00403D9404E0806F0020686
:100F60001018F1401818C1F340083018404421FA15
:100F700008F101EB000804EBC80000F128094FEA72
:100F8000C80AD9F808607068C008C000504518BF8A
:100F900000F052FBD6F808B04E4508BF00F04CFBFD
:100FA0005E4508BF00F048FB7068C008C0005045AF
:100FB00018BF00F041FBD94505D1206805FA08F1BA
:100FC000884320600DE02069834508D3DBF80C00DE
:100FD000B04204D1C9F808B0CBF80C9001E000F0A1
:100FE0002BFB47F003007060AAEB0708B8190190CB
:100FF00048F001014160019848F80080A7684FEA75
:10100000D70ABAF1200F28BF00F016FB47B3CDF87E
:1010100000A004EBCA00D4F8149000F1280AD346CB
:10102000102F38BF00F008FB2068009920FA01F16A
:10103000C90705D4009905FA01F10843206007E0CB
:10104000DAF80800216988422CBF834600F0F4FAE0
:10105000CAF80890CBF80C90C9F808B0C9F80CA0F1
:10106000C4F8088006F108050198606150E06068E6
:10107000C0B339462046FFF7EEFD050012D047E029
:1010800015F1400F28BF4FF0FF370BD205F10B00D1
:10109000C008C700606828B139462046FFF716FC33
:1010A000050035D1A168B9421CD3CA1B6069102A5A
:1010B0000AD339186161A26042F001034B605250BB
:1010C00047F0030141600AE00022A260626141F042
:1010D0000302426009184A6842F001024A6000F1C6
:1010E000080515E0E06887420DD2C01BA169E060E9
:1010F0007A18A26140F00100506001F1080547F044
:101100000300486004E039462046FFF71AFA054616
:10111000C046C046284603B0BDE8F08F00B970470E
:101120002DE9F047A0F10804C046C046DFF800559D
:1011300028698442C0F07582616801F00302012AC7
:1011400000F06F82CA084FEAC20808EB0409CA0718
:1011500037D4226811F0030F00F0658251420C1958
:1011600090448442C0F05D8269698C4200F0D8806E
:10117000D608202E70D2D4F80CA0A768544508BF1A
:1011800000F05AFABC4208BF00F056FA6068C00886
:10119000C000B0EBC60F18BF00F04EFA05EBC6005A
:1011A00000F128018F4205D029698F4251D3F96897
:1011B000A1424ED1BA453DD128680121B1408843B2
:1011C00028604C4580F02D82D9F80400C10740F119
:1011D0002882810700F17A81A969894540F0B580AC
:1011E000E868AC614044E86040F001016160696911
:1011F0008C4202D100216961A960E969814280F0D5
:101200001282DFF83004006808B9FEF7C8FFA96948
:10121000002900F00882E868292824BF2846FEF744
:10122000B1FFE869E968884280F0FD814FF0FF3046
:10123000E861F8E12830824506D02869824508D364
:10124000DAF80800A04204D1C7F80CA0CAF8087068
:10125000B7E700F0F1F9B4E7E768A669A7420BD059
:10126000A168814222D3C868A04204BFB868A042E6
:101270001CD1CF60B9601BE004F114010F6837B9CD
:1012800004F110010F689FB101E011460F6807F1EA
:1012900014021368002B02BF07F110021368002B21
:1012A000F3D1814202D30020086001E000F0C4F9CC
:1012B000002E86D0E06905EB800000F5987001688B
:1012C0008C4209D10760380011D1E26968680121B8
:1012D00091408843686074E72869864205D3306985
:1012E000A04214BF7761376101E000F0A5F9002F3B
:1012F0003FF467AF28698742ABD3BE61216929B14A
:10130000814226BF39618F6100F096F9606900283B
:101310003FF457AF296988429BD37861876150E7D2
:1013200099F8040000F0030003287FF44AAFC5F8E1
:101330000880D9F8040040084000C9F8040048F0CB
:101340000100606048F804806DE16969894508D151
:10135000A8686C614044A86040F0010161600051E0
:1013600061E1C008C0004FEAD00A8044BAF1200F02
:1013700036D2D9F80C70D9F80860B94508BF00F02A
:101380005BF9B14508BF00F057F9D9F80400C0086F
:10139000C000B0EBCA0F18BF00F04EF905EBCA0051
:1013A00000F128018E4206D029698E42C0F081806A
:1013B000F16849457DD1B74206D12868012101FA7B
:1013C0000AF18843286076E02830874205D02869F2
:1013D00087426ED3B86848456BD1F760BE606AE05B
:1013E000D9F80C70D9F818604F450DD0D9F808001D
:1013F0002969884223D3C168494504BFB968494572
:101400001DD1C760B8601CE009F11400076837B946
:1014100009F110000768A7B101E00846076807F165
:1014200014010A68002A02BF07F110010A68002AA5
:10143000F3D12969884202D30021016001E000F064
:10144000FBF8002E37D0D9F81C0005EB800000F522
:101450009870016889450AD10760380012D1D9F81F
:101460001C206868012191408843686023E0286956
:10147000864205D33069484514BF7761376101E082
:1014800000F0DAF8BFB12869874212D3BE61D9F8FB
:10149000101029B1814226BF39618F6100F0CCF86C
:1014A000D9F8140038B12969884202D3786187617C
:1014B00001E000F0C1F848F00100606048F80480E5
:1014C000686984420BD1C5F80880ACE04008400050
:1014D000C9F8040048F00100606048F804804FEA51
:1014E000D807202F22D205EBC70000F128094E466D
:1014F000B8F1100F38BF00F09FF8286820FA07F104
:10150000C90704D40121B9400843286007E0D9F88D
:101510000800296988422CBF064600F08DF8C9F8FA
:101520000840F460A660C4F80C907CE05FEA1820E4
:1015300008BF002123D0B0F5803F28BF1F211ED255
:10154000A0F58071090C01F008018840A0F58052D7
:10155000120C02F004029040A0F580431B0CC1F174
:101560000E0103F00203891AC91A984001EBD0302A
:10157000C11D28FA01F101F0010101EB4001E16117
:1015800000226261226105EB81006A6822FA01F3A0
:1015900000F59870DB0706D4012303FA01F111432B
:1015A000696004601CE01F2900680EBF0021490823
:1015B000C1F1190108FA01F100E010464268D208B1
:1015C000D200424510D0CA0F00EB820202F1100394
:1015D00049001A68002AF0D129698B4211D31C6096
:1015E000A061E460A4600EE02A698168904228BF8F
:1015F000914206D3CC608460A160E0600020A061CD
:1016000001E000F019F8286A401E28620BD1D5F8D5
:10161000C80100E080680028FCD14FF0FF3028624C
:1016200001E000F009F8C046C046BDE8F0870000C0
:101630005011002078130020012000F027B850F846
:10164000041B61B150F8042BD30744BFA9F1010377
:101650009A18002342F8043B091FFAD1EFE77047BC
:101660000749086808B1002070470648C008C00054
:1016700008600549C908C900091A0160704700BF20
:1016800094130020A7170020A047002080B5C04673
:10169000C046024A11001820ABBEFBE7260002003C
:1016A0002DE9F04F82460FF27C60A5B017461D462B
:1016B000D0E90023CDE9122304AE0020049170622A
:1016C0000DF1500800E04F440020ADF8020012ABCD
:1016D0004FF0FF3239460DF1020001F098F88146D3
:1016E000B9F1010F08DA3878B0F1010969EB09099D
:1016F0006FEA09004FEAD079BDF8020025280CBF37
:10170000A9F1010BCB46BBF1010F0EDB3C4614F8EF
:10171000011B0498D0470490002800F0FD82706AF5
:10172000401C7062BBF1010BF1D1BDF8020025280D
:1017300007D10020F06030617061B061F06130620B
:1017400005E00028BFD1706AE8E240F0010017F818
:10175000011F2029F9D023290DD02B2904D02D29B0
:1017600006D030290AD00CE040F0020080B2EEE74B
:1017700040F00400FAE740F00800F7E740F01000FE
:10178000F4E72A290DD129680A1D2A600968F16247
:10179000002904D5494240F00400F16280B27F1C68
:1017A00013E00021F1620BE0F16A6FF0004399420F
:1017B00005D001EB810302EB43013039F1627F1C5C
:1017C0003A78A2F130010A29EED339782E2903D0D4
:1017D0004FF0FF31B1621EE017F8011F2A2906D130
:1017E00029680A1D2A607F1C0968B16213E0002184
:1017F000B1620BE0B16A6FF00043994205D001EB92
:10180000810302EB43013039B1627F1C3A78A2F1C7
:1018100030010A29EED330860FF21050397801F0EA
:1018200007F808B117F8010B8DF842009DF8420047
:10183000682802BF39786829622005D06C2804BF67
:1018400038786C2803D171208DF842007F1C14A8D1
:10185000B0603978B1F125002AD01C3800F0C6807C
:10186000001F022840F2C280133800F0EA800938D5
:1018700000F0BC80801E00F07D81401E00F02681BB
:10188000401E022840F2B280001F00F01F81401F5E
:1018900000F08180401E00F0D480401E2AD0C01E7F
:1018A0000BD0801E00F0CD80C01E00F0CA8081E108
:1018B000F068411CF160252186E19DF842006C280A
:1018C000286813D0011D29600068B26A7060002A80
:1018D00002D500F0B9FF07E0002100F0D1FF002899
:1018E0001ABF7168401AB06A30616FE1011D29604A
:1018F000026858E12868011D296000210068CDE9CF
:1019000002014FF03C0E14A87060DDE9020111B92C
:1019100008B9B26ACAB10206120FA0EB0212303245
:10192000AEF10103D2B29E463A2AA8BF273200097F
:1019300003F8082040EA0170090908BF002804D014
:10194000726814AB73449A42E5D314A97144716070
:10195000CEF13C00B16A3061884207DA081AB06102
:101960004FF6EF71308E084030862FE1002940F1AC
:101970002D8196F8301001F01401102940F02681D5
:10198000F16AF268891AB269891A081A0128C0F244
:101990001D81B0611AE19DF84200622818D06828C4
:1019A00006D06A280BD06C2819D0712807D016E011
:1019B0002868011D29600068716A018006E12A68B3
:1019C000101D28601268706AC117C2E90001FDE0AD
:1019D0002868011D29600068716A0170F6E02868B6
:1019E000011D29600068716A0160EFE02868C01D70
:1019F00020F00700286000F108022A60D0E90023E7
:101A0000CDE90223002B04D5F068421CF2602D22A0
:101A10000DE0308E820704D5F068421CF2602B2264
:101A200005E0C00705D5F068421CF260202200F8EE
:101A30000820F06814AA8018706002A800F0DAFB91
:101A4000C4E09DF842006C2808BF2A6811D07128B4
:101A500008BF2A6802D02A686A280AD1D21D22F05B
:101A600007022A60144604F108022A60D4E9002320
:101A700003E0131D2B6000231268CDE902236828C0
:101A800008BF92B207D0622808BFD2B203D0742830
:101A900018BF7A2802D10023CDE9022396F830003E
:101AA00000075FD5DDE90223002B08BF002A59D0CB
:101AB00041F02000782855D1F068302200F8082045
:101AC000401C421CF26000F808104BE09DF84200F8
:101AD00062280CD0682810D06A281AD06C2823D02D
:101AE000712816D074281FD07A280CD01CE02868E2
:101AF000021D2A6090F900201AE02868021D2A6061
:101B0000B0F9002014E02868021D2A600023026852
:101B10000FE02868C01D20F00700286000F10802CF
:101B20002A60D0E9002304E02868021D2A600268C8
:101B3000D317CDE90223002B04DAF068421CF260CF
:101B40002D220DE0308E820704D5F068421CF26031
:101B50002B2205E0C00705D5F068421CF260202268
:101B600000F80820F06814AA8018706002A800F03D
:101B700092FA2BE09DF842006C2807D0F068411CD7
:101B8000F16029680A1D2A6009681DE02868011DA6
:101B9000296001AA0068ADF804000020ADF8060035
:101BA0004FF0FF30B06202A9504600F0C3F80028A1
:101BB0000CD5B1E0F068421CF260252200F8082044
:101BC00021B1F068421CF26000F80810F06AF16878
:101BD000401AB169401A3169401AF169401A7169B5
:101BE000401A316AA0EB010996F830007F1C4007CB
:101BF00010D420208DF80000002409E0012300AA61
:101C000002A9504600F0DFFD002840F08580641CEA
:101C10004C45F3DBF4680DF1500B0AE01BF8011B97
:101C20000498D0470490002876D0706A401C7062F7
:101C3000641E002CF2D130208DF800004FF0000B14
:101C4000B46909E0012300AA02A9504600F0BBFDD7
:101C5000002861D10BF1010BA345F3DB3469D6F801
:101C600004B00AE01BF8011B0498D0470490002838
:101C700052D0706A401C7062641E002CF2D1302079
:101C80008DF800004FF0000BF46909E0012300AA71
:101C900002A9504600F097FD00283DD10BF1010B41
:101CA000A345F3DB30697168746900EB010B09E04F
:101CB0001BF8011B0498D047049068B3706A401C5D
:101CC0007062641E002CF3D130208DF800004FF0BC
:101CD000000B346A08E0012300AA02A9504600F074
:101CE00072FDC8B90BF1010BA345F4DB96F8300087
:101CF00040077FF5E9AC20208DF80000002400E0CB
:101D0000641C4C45BFF6E0AC012300AA02A9504672
:101D100000F059FD0028F3D04FF0FF3025B0BDE8AA
:101D2000F08F00000000000000000000686A6C7482
:101D30007A4C00002DE9F44F0F4694B0D7F830806C
:101D40008346B8F1000F48BF6FF0004800F0C4FDB3
:101D5000796B401801900FF69C20D0E90023CDE963
:101D6000022397F83800400702D40198412805D291
:101D700040200DF1100A0190002509E0FFF774F8EA
:101D80005FEA000AF8D14FF0FF3081E1A8EB0908C3
:101D9000B8F1010FC0F2C3801498018802AA0DF1B6
:101DA000010000F09EFD8146002800F1CF801498CC
:101DB000008818B9B9F1010900F1C880C845C0F21E
:101DC000AE807869019909EB0002914280F095801C
:101DD0007D634042396A401AB969401A796A401AEB
:101DE000F969401AB96A451A97F83800400710D4C3
:101DF00020208DF80000002409E0012300AA3946C4
:101E0000584600F0E0FC002840F0A080641CAC4282
:101E1000F3DB7B6952463946584600F0D4FC002873
:101E200040F0948030208DF8000000263C6A09E0E4
:101E3000012300AA3946584600F0C5FC002840F0AE
:101E40008580761CA642F3DBBC69FE680AE016F8C2
:101E5000011BB868D847B860002877D0F86A401CE2
:101E6000F862641E002CF2D130208DF800000026AC
:101E70007C6A08E0012300AA3946584600F0A3FC1A
:101E8000002863D1761CA642F4DBB869F968FC69C6
:101E900046180AE016F8011BB868D847B860002851
:101EA00054D0F86A401CF862641E002CF2D1302035
:101EB0008DF800000026BC6A08E0012300AA39461C
:101EC000584600F080FC002840D1761CA642F4DB86
:101ED00097F8380040070ED520208DF80000002428
:101EE00007E0012300AA3946584600F06CFC68BBA5
:101EF000641CAC42F5DB00257D614A4678690DF132
:101F00000101504400F0FAFC786948447861149863
:101F1000801C1490801E008800287FF437AF786BF7
:101F20007969401A396A401AB969401A796A401ABF
:101F3000F969401AB96AA0EB010897F83800400720
:101F400019D420208DF80000A94612E04FF0FF358B
:101F500097E0012400AE16F8011BB868D847B860B6
:101F60000028F3D0F86A401CF862641EF3D109F12E
:101F70000109C145EDDB7B6952463946584600F000
:101F800022FC0028E2D130208DF80000A946386AF2
:101F900001900FE0012400AE16F8011BB868D84785
:101FA000B8600028D2D0F86A401CF862641EF3D1F1
:101FB00009F1010901988145ECDBBB69FA683946F2
:101FC000584600F000FC0028C0D130208DF80000F9
:101FD000A946786A01900FE0012400AE16F8011BB3
:101FE000B868D847B8600028B0D0F86A401CF862DA
:101FF000641EF3D109F1010901988145ECDBB86950
:10200000F968FB6942183946584600F0DCFB0028A5
:102010009CD130208DF80000A946B86A01900FE0ED
:10202000012400AE16F8011BB868D847B860002834
:102030008CD0F86A401CF862641EF3D109F10109E2
:1020400001988145ECDB97F83800400717D5202030
:102050008DF80000A94610E0012400AE16F8011B1F
:10206000B868D847B86000283FF470AFF86A401CE1
:10207000F862641EF2D109F10109C145ECDB7D6112
:102080007D6304A882451CBF5046FFF747F82846E9
:1020900015B0BDE8F08F2DE9FA47064682B03569E4
:1020A0000A466F2A08BF082705D041F0200078288B
:1020B00014BF0A271027D6E900013C248046894630
:1020C000642A18BF692A05D1002903DAD8F100086B
:1020D00069EB4909B9F1000F08BFB8F1000F0CD145
:1020E000306B50B9082F3BD196F83800000737D530
:1020F00030203B2485F83B0032E0CDE90089FB1716
:10210000404649463A4600F035FCB846A8FB002355
:10211000DDE90089A8EB02023032A4F1010AD2B253
:1021200054463A2A03DB9DF80830513B9A180AF8C6
:10213000052080465FEA010908BFB8F1000F03D00F
:10214000F06861198842D8D3082F09D196F8380071
:10215000000705D5605D302802D0641E3020605530
:10216000C4F13C00B0616119F160316B884207DA5B
:10217000081A30624FF6EF71308F0840308710E058
:1021800000290ED596F8381001F01401102908D155
:10219000716B7269891A326A891A081A0128A8BFF4
:1021A000306204B0BDE8F0872DE9D04306460F4603
:1021B00014464FF00008DFF8389012E0E00707D52A
:1021C00042464B463046394600F04CFC06460F4628
:1021D00064104046494642464B4600F043FC804668
:1021E0008946002CEAD130463946BDE8D08300004C
:1021F000000024402DE9F04F04468FB08846D4E912
:102200000001CDE9020148F0200904AFB9F1610FE6
:102210000AD0206B002848BF062004D408BFB9F1BB
:10222000670F01D1012020636168C1F30A5040F2B9
:10223000FF7290421AD1080304BF2068002808D119
:102240000320A061A8F161001A2834D30FF2B8511D
:1022500007E00320A061A8F161001A2828D30FF23B
:10226000A051E068032200F049FB84E1012815DA5F
:10227000204600F0C8FC012810DB00260020B9F140
:10228000610F1FD1E168302201F8012B4A1CE26086
:10229000B8F1610F0CBF782258220FE0626840F25B
:1022A000FE3161F31E52461A62604FF0FF30E6E7DE
:1022B0000FF24851D5E70FF24C51D2E70A7061692D
:1022C000891C616110B9002500264CE1B9F1610F4C
:1022D00040F09580206B00284CBF2125451CDDE98E
:1022E00002012DB26F1CD4E900AB0022002300F0E4
:1022F000ABFC3ABF8BF00040CDE902A0CDE902ABC8
:10230000361F8DF810200DF1110A01E000F2070AC6
:10231000012F32DBDDE902010022002300F0ACFCDA
:102320002BD21C2102A800F0BFFCDDE9020100F065
:1023300041FDFF1F8146012F09DB00F067FD0246CA
:102340000B46DDE9020100F079FDCDE902010AF258
:102350000700072105E009F00F0200F8012D4FEA00
:102360002919B9F1010F01DB491EF4D5491E5CBFE3
:10237000002200F8012DF9D5C8E70DF11100AAEBF4
:1023800000010DF11107A942B8BF0D462DB228007A
:102390002ED4884206DA04A9411849780829A8BF32
:1023A0000F2100DA002104AA821800E06D1E12F845
:1023B0000139401E8B42F9D00F2904D104A94118DC
:1023C0004A78521C4A70002802D504AF6D1C361D95
:1023D0002DB2681E0CD4C119A8F13A030A78303224
:1023E000D2B23A2AA8BF9A1801F80129401EF5D5A1
:1023F000206B002840F1B780681E2063B3E0DDE960
:1024000002010022002300F01FFC3CBF81F00041CC
:10241000CDE9020136B247F297507043314990FB43
:10242000F1F636B2C6F10702012A04DBDDE902014A
:10243000FFF7BAFE0AE0524200202B49FFF7B4FE34
:1024400002460B46DDE9020100F0B8FDCDE90201CC
:10245000B9F1660F0CBF06F10A000620216B451882
:10246000142DA8BF132530208DF810000DF1110791
:10247000DFF878B0012D3BDBDDE9020100F0B0FCB4
:1024800007F1080104220A23B0FBF3F303EB8307EF
:10249000A0EB4700303001F8010D0A20B3FBF0F04B
:1024A00000EB8007A3EB4703303301F8013D521ED8
:1024B000E9D1083D01F10807012DDBDBDDE902016F
:1024C00000F08EFC00F0ACFC02460B46DDE9020198
:1024D00000F0B4FC00225B4600F0C4FACDE9020132
:1024E000CAE700BFA08601000000F03F84D79741F3
:1024F0000DF11100381A0DF1110702E0401E761E91
:102500007F1C39783029F9D0B9F1660F02D136B283
:10251000711C04E0B9F1650F0CBF01210021226B91
:102520008D182DB2A842B8BF05462DB229001AD485
:10253000814204DAC85D3528A8BF392000DA30208E
:10254000CA19521E00E06D1E12F80139491E83425D
:10255000F9D0392802D1C85D401CC855002902D5E0
:102560007F1E6D1C761C36B200962BB23A46414651
:10257000204600F003F80FB0BDE8F08F2DE9F047DA
:1025800086B006468A4690461D4600F058FE406AD0
:10259000376B90F80090012D02DA01250FF26C28BC
:1025A0004AF02000BDF93840662808BF641C12D0EC
:1025B000672875D114F1040F78DBBC4276DA96F8FF
:1025C0003800641C000702D4BD42B8BF2F4624B2B5
:1025D0003F1B48BF0027F068B16924B2012C21DA03
:1025E00030234A1C0B54012F03DA96F838100907E0
:1025F00002D502F80090521CB261E742B8BF7C429B
:1026000024B26142E7197162AF42B8BF3D462DB2B4
:10261000F5612A46B3694146181800F06FF9781B36
:10262000B062B9E00818A54216DA2A46414600F021
:1026300065F9B1696918B161601B7062012F03DA35
:1026400096F83800000705D5F06801F80090F069A9
:10265000401CF061B7629FE02246414600F04EF90F
:10266000B06920182D1B012F03DA96F838100907DE
:1026700003D5F16800F80190401C2DB2B061AF4263
:10268000B8BF3D46F3682DB22A4604EB0801C018D6
:1026900000F034F9B0692818B061781B70627BE0F3
:1026A000BAF1610F14D14FF0700A16E0BD4204DA9E
:1026B00096F83810090758BF2F467F1E48BF0027DD
:1026C000BAF1670F14BF4FF0450A4FF0650A04E0F6
:1026D000BAF1410F08BF4FF0500AB169F06818F81D
:1026E000013B0B544A1C012F05DA96F838100907F4
:1026F00058BFB26115D502F80090531CB361012F89
:102700000FDB6D1E2DB2AF42B8BF3D462DB22A463B
:102710004146181800F0F2F8B0692818B061781B2B
:102720007062B069F16800EB0108200008F801ABA5
:1027300003D42B2008F8010B03E02D2108F8011B1E
:102740006442002502AF08E00A2200A800F090FDD4
:10275000019807F8010B6D1C009C21B20129F3DAE6
:10276000022D06DA4AF02000652804BF302008F860
:10277000010B4DB9302008F8010B07E06D1E02A8CF
:10278000285C303008F8010B012DF7DAB069F168E8
:102790004018A8EB0000F06196F8380000F0140033
:1027A00010280DD17069B1690818716A0818F169AB
:1027B0000818B16A0818716B8842BCBF081A3062E9
:1027C00006B0BDE8F087F8B504460D4616461F462C
:1027D000002004E0E86A401CE8627F1E002047B148
:1027E00016F8011BA868A047A8600028F2D14FF096
:1027F000FF30F2BD00000000000000006E616E00BE
:102800004E414E00696E6600494E46003000F8B5F4
:1028100004460D4616461F4600F032FD3B46324642
:102820002946204601B0BDE8F04000F040BD000060
:102830000278C9B28A421AB11CBF10F8012FF9E719
:1028400018BF00207047000000F10103810704D089
:1028500010F8011B89B18107FAD10268B2F1013188
:10286000914311F0803F04BF50F8042FF6E710F8B1
:10287000011B11B110F8011BFBE7C01A70470000E3
:10288000C9B2830706D0521E22D310F8013B9942E9
:10289000F7D11FE0083A13D302F1040241EA012103
:1028A00041EA014150F8043B121F21BF4B40A3F104
:1028B000013C2CEA030C1CF0803FF3D0C9B2001F8E
:1028C000083210F8013B521E28BF91EA030FF8D8D6
:1028D00018BF0120401E704780B500F0D1FC0120D8
:1028E00002BD70B504460D46164600F0C9FC3246DE
:1028F00029462046BDE8704000F0CCBC62B38B078F
:1029000008D0521E11F8013B00F8013B00F0248072
:102910008B07F6D1830740F0208000BF103A07D321
:1029200030B4B1E83810103AA0E83810F9D230BC11
:10293000530724BFB1E80810A0E8081044BF51F8BD
:10294000043B40F8043BD20724BF31F8022B20F8A7
:10295000022B44BF0B7803707047083A07D3B1E8E5
:102960000810083A40F8043B40F804CBF7D253076C
:10297000E4E700001B4213D1094236D12AB1844654
:10298000B0FBF2F002FB10C2704700F0B3BCFCD306
:102990000022002370470B00020000210020704736
:1029A000904271EB030CF6D370B5B1FA81F4B3FA2F
:1029B00083F52C1BA340C4F1200532FA05F63343FE
:1029C000A2405FF00046E64002E05B085FEA3202A8
:1029D000841A71EB030524BF204629467641F4D3BF
:1029E00002000B003000002170BD012ACFD970B564
:1029F000140C20D0B1FA81F4B2FA82F5C4F12004AB
:102A00006419B4F12006D6D3B2405FF00044F4401C
:102A1000002502E052085FEA3303C61A71EB020E8A
:102A200024BF3046714664416D41F3D302000B0070
:102A30002000290070BD0C46B1FBF2F102FB1145EC
:102A40002D0445EA1045B5FBF2F402FB145580B2A3
:102A500040EA0545B5FBF2F002FB105240EA0440A3
:102A600070BD0000B0B581EA030C0CF0004C40F2E0
:102A7000FF7515EA11541DBF15EA1357AC42AF425A
:102A800039E0E41923EA455343F48013C90241F0C5
:102A9000004141EA505EC7021100A7FB0202002874
:102AA0004FF00000EEFB01204FF00001E3FB072197
:102AB00018BF42F00102401800214941E3FB0E011A
:102AC000A4F580640F0302D252004041494154F101
:102AD00001046CDD470872F1004250F1000051EB37
:102AE0000451A1F580115CBF41EA0C01B0BD4CEA74
:102AF00005510020B0BD05EA1357AC4214BFAF42E8
:102B000041E050EA410E1CBF52EA430E02E061462A
:102B10000020B0BD24423C441BD15FEA070EF6D032
:102B2000090302BF01460020AEF1140EB1FA81F78D
:102B3000AEEB070401FA07FE0C37C7F1200100FADB
:102B400007F7C8404EEA000E23EA455343F48013CA
:102B5000A2E733F00043B3FA83F704BFB2FA82FE70
:102B600077440B3FE41BB7F1200E2FBF02FA0EF3A0
:102B7000BB40C7F1200E22FA0EFE38BF43EA0E0317
:102B8000BA40641C82E750EA410E14BF52EA430E79
:102B90006FF000014FF4001717EB430F8ABF19467F
:102BA00017EB410FB5E74CEA05510020B0BDD4F159
:102BB0000104B4F120070FDAC4F12007520828BF3E
:102BC00042F0010210FA07F501FA07F7E1BF2A43C4
:102BD000E0403843E1400FE0352C98DCC7F1200499
:102BE00052EA400220FA07F218BF42F0010231FA1D
:102BF00007F0A1400A43002172F1004250F10000A9
:102C000051EB0C01B0BD30B4436803F00042012128
:102C10001B031B0B436004BF0368002B08D10DE0AE
:102C20000368DD0F45EA440444605B000360491E0D
:102C30004468E302F4D523031B0B436043681A4343
:102C40004260084630BC70474FF4001C1CEB410F3B
:102C500094BF1CEB430F09E041EA030C50EA4C0C13
:102C600052EA0C0C03D2994208BF9042704714BF3D
:102C70008B428242704700004FF4001C1CEB410F56
:102C800094BF1CEB430F09E041EA030C50EA4C0CE3
:102C900052EA0C0C03D28B4208BF8242704714BF29
:102CA000994290427047000070B504460D46606836
:102CB000C0F30A5040F2FF71884207D160680003F8
:102CC00004BF2068002817D0022070BD20B920461C
:102CD000FFF799FF012867DA012D0FDB40F2FF7142
:102CE000091A8D420AD36068002847BF00202F4987
:102CF00000202F49C4E90001012070BD4142A942D2
:102D0000616806DA6FF31E51401941EA00506060B5
:102D100041E0401E63680122451962F31F5305F12B
:102D2000350001F000416360352803D36160002065
:102D3000206070BD002215F11F0F04DA22682360A5
:102D4000002020356060684213D0521E25689241F1
:102D5000C0F12003D2439D4045EAD27225686668DF
:102D6000C54006FA03F32B432360636823FA00F09F
:102D70006060606808436060B2F1004F03D80DD115
:102D80002078C0070AD52068401C2060206828B938
:102D90006068401C60604FF0FF3070BD6068884222
:102DA00004BF20680028F6D1002070BD0000F0FFAD
:102DB0000000F07FF446400D40EAC120490006D2F1
:102DC00000F014F8004248BF6FF00040604700F088
:102DD0000DF84FF0004188428CBF084640426047E2
:102DE000400D40EAC120490080F00D8040F00040D5
:102DF000490DA1F58061491C05D4D1F11F0154BFD3
:102E0000C840C01770474FF000007047010040F104
:102E10000980F446404200F005F851F00041604757
:102E2000010000BF09D0B0FA80F18840C91CC1F58B
:102E30008461090501EBD0214005704770B44FF063
:102E4000004591EA030F44BF6B4000F055BA00BF44
:102E5000841A71EB030604D26E40001BB1411219B3
:102E600073414FF4001C1CEB410F34BF7CEB430655
:102E700084E00C0DA4EB1356362E7DDC012E43DCD2
:102E800045EAC32343EA525312BFD20292025B08BF
:102E9000240545EAC12141EA5051D2EBC0209941B5
:102EA00025D407D1B0FA80F610FA06F164D00020DC
:102EB000203608E0B1FA81F6B140C6F1200220FACE
:102EC00002F21143B0404FEAF474B4EB465434F0CC
:102ED00001064FEA74040AD8D6F50016760D04F000
:102EE0000044F04061FA06F25040F1404840C00A08
:102EF00040EA415021F0004128BF5FEA500550F1FF
:102F0000000044EBD12137E045EAC323DB0A45EA60
:102F1000C121C90AB6F120050EDD42EA0242120CB7
:102F2000C5F1200603FA06F6EB4042EA06056D42BB
:102F3000984161F100010DE062FA06F5F24055405A
:102F400063FA06FC82EA0C02F3405A406D4290415B
:102F500061EB030111F4801F05D1641E620502D0EC
:102F60006D004041494121F48011430875F100434F
:102F700050F1000041EB045170BC70471CEB410F55
:102F800015D223F0004352EA43060BD04FEA4C0C13
:102F9000BCEB410F04D80C0D661E342EB7DDEBE7F9
:102FA000801A994150EA410608BF0021E4E708BFB2
:102FB0001CEB430F28BF6FF00001DDE7F0B540F2D6
:102FC000FF7581EA030C0CF0004C15EA11541DBF8B
:102FD00015EA1357AC42AF42E5E0BC41C1F313011F
:102FE000C3F31303801A994143F4801304D2641E7F
:102FF0004000494180185941C90241EA5051B1FB92
:10300000F3F603FB1611A2FB0675D7EBC020A9410E
:1030100002D2761E80185941C90241EA5051B1FBD3
:10302000F3FE03FB1E11A2FB0E75D7EBC020A941D6
:1030300003D2AEF1010E80185941890241EA905144
:10304000760546EA8E2EB1FBF3F603FB1611A2FBC2
:103050000675D7EB8020A94102D2761E801859410F
:10306000C90241EA50514EEA060EB1FBF3F603FBEA
:103070001611A2FB0675D7EBC020A94102D2761E1D
:1030800080185941C90241EA5051B1FBF3F703FBE3
:103090001711A2FB0735D3EBC020A94167F1000748
:1030A0000CBF004247F0010766F3D5274FEA1E31F7
:1030B000B80814F5806412DDBD0775F1004250EBCD
:1030C0000E5051EB045111F5801F5CBF41EA0C0119
:1030D000F0BD4CF07F6141F0E0410020F0BDBD0744
:1030E0006D0840EA0E5041F48011D4F10104B4F1AE
:1030F00020060ADAC4F120060200E04001FA06F3D5
:10310000E1401843B24015430EE0342C13DCC6F105
:10311000200445EA40056D0820FA06F2154321FA1D
:1031200006F0A1400D43002175F1004250F100006E
:1031300051EB0C01F0BD00205FEA0C01F0BDCFB9EE
:1031400092185B41B3FA83F704BFB2FA82F6BF1953
:103150000B3FB7F120062FBF02FA06F3BB40C7F1C1
:10316000200622FA06F638BF3343BA401CB1E419F0
:10317000641E33E77F4231F00041B1FA81F404BFAD
:10318000B0FA80F6A4190B3CB4F120062FBF00FA68
:1031900006F1A140C4F1200620FA06F638BF3143FB
:1031A000A0403C1B1AE7AC421ABF05EA1357AF42D6
:1031B00012E050EA41061CBF52EA4306BFE750EA5C
:1031C0004107304661461CBF41EA0551F0BD52EA55
:1031D000430C08BFC143F0BD00204FF4001616EBAE
:1031E000410F98BF16EB430F08BF16EB410F24BFEA
:1031F000C14305E016EB430F0CBF61464CEA055195
:10320000F0BD000080B5134800F0E0F80FF248016F
:10321000016041608160C1600161416181610FF2C3
:103220003C0242628162C162016341630FF230027B
:1032300082630FF23402C2630164416401BD10B5C0
:10324000044800F0C3F80446206808B9FFF7DAFF25
:10325000204610BD00000020000000002E000000ED
:1032600066616C7365000000747275650000000093
:1032700091FBF2F303FB1211C0E90031704700002B
:1032800080B5DFF80C0000F0A1F8806902BD0000F5
:103290009000002030B430B90FF24800D0E900456A
:1032A000C2E900451BE00170012030BC704730B41A
:1032B00031B90FF23800D0E90045C3E900450EE00E
:1032C0001AB930BC6FF00100704708B10A7802806B
:1032D0000978481E804130BCC043C00F70470020B1
:1032E00030BC70470000000000000000000000003B
:1032F0000000000070470000841A71EB030603D23F
:10330000001BB141121973414FF4001C1CEB410F1B
:1033100034BF7CEB430443E00C0DA4EB1356352E75
:1033200050DC45EAC323DB0A45EAC121C912B6F1E4
:1033300020050DDD63FA05F6EB4086EA030512422F
:1033400018BF45F00105C01851F100010CD213E07F
:1033500062FA06F5F2405540F3415A40B340F3405B
:103360005A408018594107D349085FEA30005FEAA4
:10337000350528BF45F0010501F58011420875F1BA
:10338000004250F1000041EB045170BC4FF4001CAE
:103390001CEB410F38BF70470020090D090570472D
:1033A0001CEB410F10D252EA43060BD0BCEB410F8D
:1033B00005D80C0DAB43661E342EB5DD02E0AB43E1
:1033C0008018594170BC704770BC7047704700004E
:1033D00000B583B00121022000F0F6FB01208DF83A
:1033E000040000A900208DF806004FF4806000F072
:1033F00005F8DFF8440000F005FC07BD0090002050
:103400008DF8070002208DF805007047B0F5A07F09
:1034100000DB704710B5F0290CDA4FF0C0432024D0
:103420001C80DFF8D44621802121198020802220B1
:103430001880228010BD0000000402402DE9F047F2
:10344000044688469A46B4F5A07F19DAA2F1200016
:103450000701BFB200250FF23809002617F809004E
:10346000F040C00704D505EB0801301900F00BF857
:10347000761C082EF2DB7F1C6D1CBFB20F2DECDB1F
:10348000BDE8F0873018524689B280B2BEE700002E
:10349000000000000000000000000000000000002C
:1034A0000000183C3C3C18181800181800000000D8
:1034B00000666666240000000000000000000000B6
:1034C00000000036367F3636367F36360000000084
:1034D00018183E6343033E6061633E181800000005
:1034E00000000000436330180C0663610000000018
:1034F00000001C36361C6E3B3333336E0000000078
:10350000000C0C0C06000000000000000000000091
:10351000000030180C0C0C0C0C0C183000000000D3
:1035200000000C18303030303030180C0000000033
:103530000000000000663CFF3C6600000000000048
:10354000000000000018187E18180000000000009D
:103550000000000000000000001818180C00000017
:10356000000000000000007F0000000000000000DC
:10357000000000000000000000001818000000001B
:1035800000000000406030180C060301000000003D
:1035900000003E6363736B6B6763633E0000000073
:1035A0000000181C1E1818181818187E00000000BB
:1035B00000003E636030180C0603637F00000000CB
:1035C00000003E6360603C606060633E000000009D
:1035D000000030383C36337F303030780000000057
:1035E00000007F0303033F706060633E0000000043
:1035F00000001C0603033F636363633E000000009A
:1036000000007F63606030180C0C0C0C00000000A0
:1036100000003E6363633E636363633E000000003B
:1036200000003E6363637E606060301E0000000047
:10363000000000001818000000181800000000002A
:1036400000000000181800000018180C000000000E
:103650000000006030180C060C18306000000000FC
:103660000000000000007F00007F0000000000005C
:10367000000000060C18306030180C060000000036
:1036800000003E636330181818001818000000008E
:103690000000003E63637B7B7B3B033E0000000039
:1036A0000000081C3663637F6363636300000000EF
:1036B00000003F6666663E666666663F0000000084
:1036C00000003C66430303030343663C0000000024
:1036D00000001F36666666666666361F00000000DC
:1036E00000007F6646161E160646667F0000000034
:1036F00000007F6646161E160606060F0000000034
:1037000000003C664303037B6363665C00000000CB
:103710000000636363637F636363636300000000AF
:1037200000003C18181818181818183C0000000061
:1037300000007830303030303333331E000000006A
:103740000000676636361E1E36666667000000009B
:1037500000000F06060606060646667F000000000B
:10376000000063777F7F6B63636363630000000027
:10377000000063676F7F7B73636363630000000017
:1037800000001C36636363636363361C0000000043
:1037900000003F6666663E060606060F0000000053
:1037A00000003E6363636363636B7B3E30700000C5
:1037B00000003F6666663E3666666667000000008B
:1037C00000003E6363061C306063633E000000003F
:1037D00000007E7E5A1818181818183C00000000C7
:1037E00000006363636363636363633E0000000020
:1037F000000063636363636363361C0800000000BA
:10380000000063636363636B6B7F36360000000008
:103810000000636336361C1C36366363000000000C
:103820000000666666663C181818183C0000000028
:1038300000007F636130180C0643637F00000000C6
:1038400000003C0C0C0C0C0C0C0C0C3C00000000A0
:103850000000000103070E1C3870604000000000EB
:1038600000003C30303030303030303C0000000060
:10387000081C36630000000000000000000000008B
:1038800000000000000000000000000000FF000039
:103890000C0C1800000000000000000000000000F8
:1038A00000000000001E303E3333336E0000000085
:1038B00000000706061E36666666663B00000000CE
:1038C00000000000003E63030303633E00000000AD
:1038D00000003830303C36333333336E00000000A4
:1038E00000000000003E637F0303633E0000000011
:1038F00000001C3626060F060606060F0000000014
:1039000000000000006E33333333333E30331E008B
:103910000000070606366E666666666700000000F1
:1039200000001818001C18181818183C0000000097
:1039300000006060007060606060606066663C000F
:10394000000007060666361E1E3666670000000089
:1039500000001C18181818181818183C000000004F
:103960000000000000377F6B6B6B6B6B000000008A
:1039700000000000003B66666666666600000000A8
:1039800000000000003E63636363633E00000000CC
:1039900000000000003B66666666663E06060F0095
:1039A00000000000006E33333333333E3030780094
:1039B00000000000003B6E460606060F00000000F7
:1039C00000000000003E63061C30633E0000000063
:1039D0000000080C0C3F0C0C0C0C6C3800000000B4
:1039E00000000000003333333333336E0000000037
:1039F000000000000066666666663C180000000075
:103A000000000000006363636B6B7F360000000002
:103A1000000000000063361C1C1C36630000000020
:103A200000000000006363636363637E60301F0017
:103A300000000000007F33180C06637F00000000C8
:103A40000000701818180E181818187000000000E0
:103A5000000018181818001818181818000000008E
:103A600000000E18181870181818180E0000000022
:103A700000006E3B0000000000000000000000009D
:103A800000000000081C366363637F000000000034
:103A90002DE9F0478046104688B089460178407885
:103AA0009A4600F01FF800F08FF900270024002547
:103AB000002600A8385CB040000605D508EBC5001C
:103AC00004EB0901FFF7DEFC761C082EF1DB7F1CFE
:103AD0006D1CBFB2022DEBDB641C102CE7DB08B0C1
:103AE000BDE8F0875E2303FB01000449081841018B
:103AF000202200A87047000000000260BFBEFFFF48
:103B00002DE9F04104460D4616469846002709E087
:103B100016F8012B3819294680B2FFF78FFC07F100
:103B2000080087B2307860B180284346F0DB38194E
:103B30003246E9B2C0B2FFF7ABFFB61C07F1100086
:103B4000EFE7BDE8F081000030B528494A68284B0E
:103B5000284C02F00C02042A02D0082A02D018E0F5
:103B6000234616E00A680D6805F03F05C2F380524F
:103B7000002A14BFB4FBF5F2B3FBF5F20B68C3F3F4
:103B800088135A430B68C3F301435B1C5B00B2FB11
:103B9000F3F303604B68184A0468C3F303139B5C98
:103BA00024FA03F343604B684468C3F382239B5CAD
:103BB00024FA03F3836049684368C1F34231895CA6
:103BC00023FA01F1C16030BD0C4A0029116814BF0D
:103BD000084321EA000010607047094A0029116873
:103BE00014BF084321EA0000106070470438024007
:103BF0000024F40040787D013C0100203038024070
:103C000044380240F0B50022012393400C681C4068
:103C10009C422BD154000325A540ED4306682E405D
:103C2000066006680F79A7403E4306600E79012EB4
:103C300018BF022E11D186682E40866086684F79A3
:103C4000A7403E438660466826EA03034360436814
:103C50008E799640B6B233434360C3682B40C3604D
:103C6000C368CD7905FA04F42343C360521C102ABB
:103C7000CAD3F0BD018370474183704710B5CB10A4
:103C800000EB830001F007018900036A0F248C40D8
:103C9000A3430362036A02FA01F11943016210BDF2
:103CA00038B5044600F0D5F800F0E2F86E4D10216A
:103CB0002846FFF7E1FF202000F0B2F800F0ABF853
:103CC000200400F0A9F8E0B200F0AAF8102128467C
:103CD000FFF7D0FFBDE83140CAE0F8B504460D4615
:103CE000164600F0B6F800F091F8022000F098F8BF
:103CF000280200F091F8280400F08EF8E8B200F0F5
:103D00008FF840F20110864206D34FF4807603E02C
:103D100014F8010B00F084F83046461E80B20028EB
:103D2000F6D110213846FFF7A5FFBDE8F1409FE02E
:103D30002DE9F04780460E46F0B24742FFB2150A21
:103D4000D4B268B9002D34D02846451EC0B2002830
:103D50002DD000F034F806F5807608F58078F3E78A
:103D600007EB080907EB060A55B9A74221DA3A46DC
:103D70004046FFF7B2FFE21BD2B25146484619E077
:103D8000D21B92B2150AD4B23A464046FFF7A5FFBD
:103D90005646C84605E000F012F806F5807608F5AC
:103DA00080782846451EC0B20028F4D12CB12246A6
:103DB00031464046BDE8F0478FE7BDE8F0874FF455
:103DC00080723146404688E7F8B504460D461646EF
:103DD00000F01CF8032000F023F8280200F01CF883
:103DE000280400F019F8E8B200F01AF803E000F037
:103DF00015F804F8010B3046461E80B20028F6D1B3
:103E000010213846BDE8F440FFF734BF164F1021AB
:103E10003846FFF731BF2002000E01E0FF20FFE728
:103E200038B50446114D00F010F80028FBD02146AB
:103E3000284600F033F8012100F008F80028FAD0F5
:103E4000284600F029F8C0B232BD0221284600F011
:103E500027B810B500F002F8062015E0024C10213A
:103E60002046FFF709BF000000000240003001407B
:103E700010B5FFF7F3FF0520FFF7D2FFFF20FFF794
:103E8000CFFFC007FAD401E0FFF7CAFF1021204698
:103E9000BDE81040FFF7EEBE808970478181704712
:103EA00000220089084218BF012210467047000016
:103EB00080B525208DF8000001208DF8010000203C
:103EC0008DF8020001208DF8030000A800F0A4F88E
:103ED00001BD01B426480099016001680029FCD1A8
:103EE00001B070472248016811B10168491E0160A4
:103EF000704730B585B000F0C3F80FF2880000F0CD
:103F000035F90FF2B40000F031F900A8FFF71CFEFC
:103F100001986421B0FBF1F0B0F1807F0BD2000278
:103F20001449000A401E4860F02213480270002025
:103F30008860072008600FF2A00000F017F90198D0
:103F40000E49B0FBF1F10FF2B00000F00FF9FFF7EE
:103F5000AFFFFFF73DFA0A4C4FF480652580322011
:103F6000FFF7B7FF65803220FFF7B3FFF6E70000E9
:103F70009013002010E000E023ED00E040420F002D
:103F8000180402400D0A0D0A53544D3332463220B4
:103F9000446576656C6F706D656E7420506C6174ED
:103FA000666F726D0D0A4275696C64206279205AE1
:103FB0007765622E0D0A0000526561647920746F86
:103FC000207475726E206F6E20746865205379734B
:103FD0007469636B2E0D0A005379737469636B20E7
:103FE0006F70656E65642073756363657373667562
:103FF0006C6C792E0D0A00004D61696E20436C6F68
:10400000636B204672657175656E63793A2025642D
:10401000204D487A0D0A000070B503781A46012138
:10402000C478ECB1124B1B6803F4E063C3F5E063A2
:104030001B0A4478C3F10405AC4085780F2646FA84
:1040400003F32B4023431B010A4C13550078421104
:10405000094B00F01F0001FA00F043F8220070BD88
:104060005011064A03F01F03994042F8201070BD1A
:104070000CED00E000E400E000E100E080E100E0A1
:1040800010B586B001211020FFF7A7FD0121012006
:10409000FFF79AFD4FF4C060009002208DF80400F5
:1040A0008DF805002F4C00A92046FFF7ABFD072235
:1040B00009212046FFF7E2FD07220A212046FFF7EB
:1040C000DDFD4FF4E130029000200390ADF81000C8
:1040D000ADF814000C20ADF81200234C02A92046C4
:1040E00000F056F8012240F22551204600F0B2F8C7
:1040F0000121204600F09CF806B010BD10B540F23A
:104100002551194802880A421CBF848800F0C1F872
:10411000E0B210BD10B5144C0146204600F092F8F4
:104120004021204600F0AEF80028F9D010BD10B5AF
:1041300040F225510C4802880A42FCD0848800F0E5
:10414000A8F8E0B210BD38B50446074DE1B22846E4
:1041500000F078F84021284600F094F80028F9D0C3
:10416000204632BD00000240001001400EB400B5F0
:1041700082B003A90091024600AB012103487844B4
:104180000A30FDF78DFA06BC5DF810FB4F06000003
:1041900030B585B004460D46208A4CF6FF710840C4
:1041A000E98808432082A0894EF6F3110840A988C7
:1041B00008432989084369890843A081A08A4FF6EA
:1041C000FF410840A9890843A08200A8FFF7BCFC72
:1041D000154884421BBF15488442039802982968F9
:1041E00019225043A28912044CBF49008900B0FB38
:1041F000F1F16422B1FBF2F00001030902FB13119B
:10420000A3891B0406D5C9003231B1FBF2F101F0DC
:10421000070105E009013231B1FBF2F101F00F01B4
:104220000843208105B030BD00100140001401405A
:104230000029818912BF41F400514DF6FF721140EF
:1042400081817047C905C90D818070478088C0058C
:10425000C00D704710B50B065B0F012401F01F0164
:1042600004FA01F1012B08BF0C3003D0022B0CBF64
:1042700010301430002A026814BF114322EA0101F1
:10428000016010BD00220088084218BF01221046BC
:1042900070470122090A02FA01F189B2C94301807B
:1042A00070470000642148430721B0FBF1F0401E35
:1042B000FDD170472DE9F84F4C4FDFF834B1386825
:1042C000000A000238604FF00108FF254FF0000996
:1042D0004FF00A0A386840F0FF0038600AFB09F422
:1042E000386820EA0800386000F077F8DBF8000052
:1042F00000F07F0086421BD13F2E18D05F2E14D0D5
:104300006F2E10D0772E0CD07B2E08D07D2E04D0AF
:104310007E2E0DD10AFB09F50AE0651C08E0A51CFC
:1043200006E0E51C04E0251D02E0651D00E0A51D7A
:104330008642D9D109F101094FEA4808B9F1070FBE
:10434000C8DB386840F0FF003860386820EA0800B1
:104350003860254F00F041F8DBF8000000F07F00E6
:10436000864228D17E2E03D1397841F0800104E0C5
:104370007D2E04D1397841F0400139701BE06E2E5A
:1043800004D1397841F0800139700FE00021397093
:104390003F2E0FD05F2E0BD06F2E07D0772E03D07D
:1043A0007B2E08D1482506E0492504E04A2502E095
:1043B0004B2500E04C258642CCD1EDB2FF2D1FBF2E
:1043C000387800F0C0000543FF2D1CBF0FF2240019
:1043D000FFF7CCFE2846BDE8F28FDBF8000000F0C6
:1043E0007F064FF47A705DE79813002014080240AE
:1043F000101002404B65792050726573736564211B
:104400000000000080B500F007F8ADF80200FFE7FB
:1044100000A8FFF701FE01BD25208DF80000002057
:104420008DF801007047F8B500242E4D2F4F40F253
:1044300025563888304206D0B8886055641C31460D
:104440003846FFF726FFB4F5805FF2DBF1BD2DE9BA
:10445000FC41FFF7D7FF0220FFF75CFEDFF8848006
:10446000214D0FE0002752202880FFF7DCFF3803A2
:10447000FFF716FC00F03CF87F1C352FF3DB5320D0
:10448000FFF748FEFFF73AFE5028EBD0402821D135
:1044900041202880FFF74BFE0646FFF748FE064303
:1044A000B6B2FFF744FE0746FFF741FE384384B239
:1044B000374609E042202880FFF7B5FF3803FFF7B1
:1044C000EFFB00F015F87F1CFFB2A0198742F1DB6B
:1044D0004320D5E70328D5D1BDE8F6410420FFF7F6
:1044E00019BE0000500100200410014000100140DE
:1044F0004FF4805239034046FFF71ABC816807E049
:1045000002681168536889185B18C360083202603A
:10451000C2689142F4D04A1C8260087870472DE945
:10452000FF4D00F10801009100270168009A490839
:1045300002EBC1010191B84600210291039101688B
:10454000490800EBC101406800F0010501F10804D1
:10455000400804EBC00631E000A8FFF7CFFF4FFA98
:1045600080FA0AE0009801680818009902904968EA
:104570000818039000980830009002980399884228
:10458000F0D0401C029010F801BD47450CD1B44258
:1045900008BFFDF751F8276805B14F44606800EB8C
:1045A000070808344745F2D007F801BBBAF1000FFD
:1045B0000AD51AF1010AE8D14745CDD1B442CBD191
:1045C000304604B0BDE8F08DBAF1010AD5D5F3E765
:1045D0007047FEE7FEE7FEE7FEE77047704770476B
:1045E000FFF780BC80B5012000F04CF801280BD10A
:1045F000002100230FF27C020846FFF781FABDE894
:104600000240012000F049B801BD10B501214FF072
:10461000804000F04BF870B101214FF0804000F075
:104620004FF8114CFFF746FE20702078FF2802D08B
:104630000E482178017010BD10B50D4C2021204688
:10464000FFF720FE01280ED12046FFF7FFFDC0B284
:104650005A2808BFFFF7FBFE2046BDE8104040F295
:104660002551FFF716BE10BD4D0100204C01002062
:10467000001001404F4E204B6579205072657373D6
:10468000656421000021074A136803405269024211
:104690001CBF002B01210846704700BF024908607B
:1046A00070470000003C0140143C01400022038A96
:1046B000808908400B421CBF002801221046704729
:1046C00000BFC943018270471D48016841F00101E4
:1046D00001600021816001681A4A114001601A4995
:1046E0004160016821F4802101600021C16081687E
:1046F0008160816841F400418160816841F4A0518A
:10470000816012494160016841F080710160016877
:104710008901FCD50E4940F203720A60816889085C
:1047200089008160816841F002018160816801F047
:104730000C010829FAD107484FF000610160704769
:1047400000380240FFFFF6FE10300024103C000548
:10475000003C024008ED00E010B5074979441831EB
:10476000064C7C44163404E00A68081D511888473A
:104770000146A142F8D110BD080000003000000041
:10478000BFCEFFFF4C1200005001002000000000CF
:104790008FFDFFFF0200000002000000E4010000A6
:1047A0003E000000000000204E01000000F00BF869
:1047B000002801D0FFF7D0FF0020C046C046FFF719
:1047C00098FB00F002F80120704700F001B80000EB
:1047D00007463846FCF75AFFFBE738B504460D4656
:1047E000284600F005F8A84218BF0024204632BD34
:1047F0000149FFF7A8BC00BFFC000020014880472A
:1048000001480047C94600080D480008C046C04698
:10481000C046C046FFF7CAFFFFF7DABEFFF7D9BEB2
:10482000FFF7D8BEFFF7D7BEFFF7D6BEFFF7D5BE5E
:10483000FFF7D4BEFFF7D3BEFFF7D2BEFFF7FEBF30
:10484000FFF7FEBFFFF7FEBFFFF7FEBFFFF7FEBF9C
:10485000FFF7FEBFFFF7C6BEFFF7FEBFFFF7FEBFC5
:10486000FFF7FEBFFFF7FEBFFFF7FEBFFFF7FEBF7C
:10487000FFF7FEBFFFF7FEBFFFF7FEBFFFF7FEBF6C
:10488000FFF7FEBFFFF7FEBFFFF7FEBFFFF7FEBF5C
:10489000FFF7FEBFFFF7FEBFFFF7FEBFFFF7FEBF4C
:1048A000FFF7FEBFFFF7FEBFFFF7FEBFFFF7ADBE8E
:1048B000FFF7FEBFFFF7FEBFFFF7FEBFFFF7FEBF2C
:1048C000FFF7FEBFFFF7FEBFFFF7FEBFFFF7FEBF1C
:1048D000FFF7B2BEFFF7FEBFFFF7FEBFFFF7FEBF59
:1048E000FFF7FEBFFFF7FEBFFFF7FEBFFFF7FEBFFC
:1048F000FFF7FEBFFFF7FEBFFFF7FEBFFFF7FEBFEC
:10490000FFF7FEBFFFF7FEBFFFF7FEBFFFF7FEBFDB
:10491000FFF7FEBFFFF7FEBFFFF7FEBFFFF7FEBFCB
:10492000FFF7FEBFFFF7FEBFFFF7FEBFFFF7FEBFBB
:10493000FFF7FEBFFFF7FEBFFFF7FEBFFFF7FEBFAB
:10494000FFF7FEBFFFF7FEBFFFF7FEBFFFF7FEBF9B
:10495000FFF7FEBFFFF7FEBFFFF7FEBFFFF7FEBF8B
:10496000FFF7FEBFFFF7FEBFFFF7FEBFFFF7FEBF7B
:10497000FFF7FEBFFFF7FEBFFFF7FEBFFFF7FEBF6B
:10498000E400F8FFDC00FAFF8100D1001F020401FF
:10499000012813002078130020281300202813007A
:1049A00020281300203901002020010020DC000D08
:1049B000010203040102030406070809FFFF0000C7
:040000050800480D9A
:00000001FF
